:020000040800F2
:1000000000800120F50C0008470D0008550D000880
:100010005B0D0008610D0008670D0008000000007E
:100020000000000000000000000000006D0D00084E
:100030007B0D000800000000890D0008450D000838
:10004000450D0008450D0008450D0008450D000848
:10005000450D0008450D0008B5050008D905000844
:10006000FD050008450D0008450D0008450D000878
:10007000450D0008450D0008450D0008450D000818
:10008000450D0008450D0008450D0008450D000808
:10009000450D0008450D0008450D0008450D0008F8
:1000A000450D0008450D0008450D0008ED09000844
:1000B000450D0008490A0008450D0008450D0008D7
:1000C000450D0008450D0008450D0008450D0008C8
:1000D000450D0008450D0008450D0008450D0008B8
:1000E00021060008450D0008450D0008450D0008D3
:1000F000450D0008450D0008450D0008450D000898
:10010000450D0008450D0008450D0008450D000887
:10011000450D0008450D0008450D0008450D000877
:10012000450D0008450D0008450D0008450D000867
:10013000450D0008450D0008450D0008450D000857
:10014000450D0008450D0008450D0008450D000847
:10015000450D0008450D0008450D0008450D000837
:10016000450D0008450D0008450D0008450D000827
:10017000450D0008450D0008450D0008450D000817
:08018000450D0008450D0008C3
:1001880010B5054C237833B9044B13B10448AFF3C9
:1001980000800123237010BD14000020000000001F
:1001A8003C10000808B5034B1BB103490348AFF3E3
:1001B800008008BD00000000180000203C10000866
:1001C80080B500AF00F01EFB00BF80BD80B584B0D5
:1001D80000AF03460A46FB8013467B71FB881B125F
:1001E800DBB203F00703FB73FB88BB73FB7B5B008D
:1001F8005BB263F05F035BB27B7300F07BFB7B7BDE
:10020800184600F0BDFBBB7B184600F09FFB7B79CE
:10021800184600F09BFB00F087FB0F2000F02AFC3B
:1002280000BF1037BD4680BD80B584B000AF03461F
:100238003960FB80FB881B12DBB203F00703FB73FA
:10024800FB88BB73FB7B5B005BB263F05F035BB255
:100258007B7300F04FFB7B7B184600F091FBBB7B68
:10026800184600F073FB00F045FB7B7B43F001036D
:10027800DBB2184600F084FB00F09EFB03461A46EA
:100288003B681A7000F050FB0F2000F0F3FB00BF32
:100298001037BD4680BD80B582B000AF03460A4620
:1002A800FB711346BB71FB79002B06D1BB79803BF0
:1002B800DBB2184600F00EF808E0FB79012B05D1F7
:1002C800BB79403BDBB2184600F004F800BF0837A2
:1002D800BD4680BD80B582B000AF0346FB71204AA1
:1002E8001F4B5B6923F4807353611D4A1C4B5B6988
:1002F80023F4704353611A49194B5B69FA7912095F
:10030800D2B2120313434B61154A154B5B6943F094
:1003180020035361124A124B5B6923F02003536197
:100328000F4A0F4B5B6923F4704353610C490C4B24
:100338005B69FA79120313434B61094A084B5B69FD
:1003480043F020035361064A054B5B6923F0200301
:100358005361012000F08EFB00BF0837BD4680BD09
:100368000004024080B500AF0120FFF7B3FF05206D
:1003780000F080FB00BF80BD80B582B000AF0346AF
:10038800FB71204A1F4B5B6943F4807353611D4A1C
:100398001C4B5B6923F4704353611A49194B5B6921
:1003A800FA791209D2B2120313434B61154A154B5D
:1003B8005B6943F020035361124A124B5B6923F0D7
:1003C800200353610F4A0F4B5B6923F47043536159
:1003D8000C490C4B5B69FA79120313434B61094AC8
:1003E800084B5B6943F020035361064A054B5B6980
:1003F80023F020035361012000F03CFB00BF0837C5
:10040800BD4680BD0004024080B500AF1D4A1D4BAB
:100418001B6B43F0020313631B4A1B4B1B6823F03F
:100428007F431360184A184B1B6843F0AA431360B4
:10043800154A154B5B6923F470435361124A124BFA
:100448001B6823F4433313600F4A0F4B1B6843F4B4
:10045800823313600C4A0C4B5B6923F4907353612D
:100468004FF4FA7000F006FB2820FFF733FF0C204A
:10047800FFF730FF0620FFF72DFFFFF773FF00BFE0
:1004880080BD00BF003802400004024080B582B041
:1004980000AF0346FB71FB791846FFF76DFF00BFFD
:1004A8000837BD4680BD80B582B000AF0346FB71FA
:1004B8000B46BB7113467B71BA79FB791146184616
:1004C800FFF7E9FE7B791846FFF7E0FF00BF083722
:1004D800BD4680BD80B584B000AF78600023FB7353
:1004E80009E0FB7B7A6813441B781846FFF7CEFFB8
:1004F800FB7B0133FB73FB7B7A6813441B78002B6F
:10050800EFD100BF1037BD4680BD80B582B000AFC7
:1005180003463A60FB710B46BB71BA79FB79114609
:100528001846FFF7B8FE3868FFF7D4FF00BF083752
:10053800BD4680BD80B500AF0A4A0A4B1B6B43F02D
:1005480004031363084A084B1B6823F440731360C1
:10055800054A054B1B6843F48073136000F016F8D6
:1005680000BF80BD003802400008024080B400AFE0
:10057800054A054B5B6943F01003536100BFBD4654
:100588005DF8047B704700BF0008024080B400AFEC
:10059800054A054B5B6923F01003536100BFBD4654
:1005A8005DF8047B704700BF0008024080B500AFCB
:1005B800054A054B5B6943F001035361034B1B6814
:1005C800984700BF80BD00BF003C014048000020A4
:1005D80080B500AF054A054B5B6943F002035361E0
:1005E800034B1B68984700BF80BD00BF003C01401B
:1005F8003C00002080B500AF054A054B5B6943F01D
:1006080004035361034B1B68984700BF80BD00BFBC
:10061800003C01404000002080B500AF104B5B69F2
:1006280003F40063002B09D00D4A0D4B5B6943F4BA
:10063800006353610B4B1B6898470EE0084B5B69DE
:1006480003F48053002B08D0054A054B5B6943F43B
:1006580080535361044B1B68984700BF80BD00BF9F
:10066800003C0140440000203800002080B400AF66
:10067800174A174B1B6B43F003031363154A154BBB
:100688001B6823F47C431360124A124B1B6843F423
:10069800A84313600F4A0F4B5B6943F0E0035361B3
:1006A8000D4A0D4B1B6823F03F0313600A4A0A4B9F
:1006B800DB6823F03F03D360074A074BDB6843F04E
:1006C8001503D36000BFBD465DF8047B704700BFCB
:1006D80000380240000002400004024080B582B0A9
:1006E80000AF00237B710023FB710023BB71002343
:1006F800FB714CE02A492A4B5B69FA7905320120E3
:1007080000FA02F2D24313404B61012000F0B2F923
:100718000023BB712BE0234B1B69BA79012101FA35
:1007280002F21340002B1FD1FB791A4652001344E2
:10073800DAB2BB791344DBB201337B711849184B29
:100748005B69FA790532012000FA02F213434B6122
:1007580000BF144B1B69BA79012101FA02F2134058
:10076800002BF6D07B7916E0BB790133BB71BB79DE
:10077800022BD0D90A490A4B5B69FA790532012064
:1007880000FA02F213434B61FB790133FB71FB79E9
:10079800022BAFD9002318460837BD4680BD00BFDD
:1007A800000002400004024080B400AF124A124B1D
:1007B8001B6843F0010313600F4B00229A600E4A36
:1007C8000D4B1B6823F0A16323F4803313600A4B9D
:1007D8000A4A5A60084B0A4AC3F88420064A064B5C
:1007E8001B6823F480231360034B0022DA6000BFE8
:1007F800BD465DF8047B7047003802401030002485
:100808000030002080B500AF374A374B1B6B43F0F0
:1008180002031363344A344B1B6C43F40013136410
:10082800324A324B1B6823F4704313602F4A2F4B14
:100838001B6843F4204313602C4A2C4B5B6843F03D
:10084800C0035360294A294B1B6A23F07F43136274
:10085800264A264B1B6A43F080631362234A234BC4
:100868001B6A43F080431362214A214B1B889BB2C9
:1008780023F001039BB213801D4A1D4B9B8B9BB237
:10088800C3F30E039BB29383194A194B9B889BB2FF
:1008980023F03F039BB29380154A154B9B889BB26C
:1008A80043F002039BB29380114A114B9B8B9BB27E
:1008B80023F47F6323F00F039BB293830C4A0C4B02
:1008C8009B8B9BB243F00A039BB29383084A084B65
:1008D8001B889BB243F001039BB21380642000F095
:1008E800C9F800BF80BD00BF0038024000040240C4
:1008F8000054004080B400AF0A4A0A4B1B889BB2E0
:1009080043F480739BB2138000BF064B9B8A9BB253
:1009180003F00103002BF8D000BFBD465DF8047B4F
:10092800704700BF0054004080B400AF064A064B31
:100938001B889BB243F400739BB2138000BFBD4673
:100948005DF8047B704700BF0054004080B483B05A
:1009580000AF0346FB71094BFA7992B21A8200BFC5
:10096800064B9B8A9BB203F08003002BF8D000BF94
:100978000C37BD465DF8047B704700BF005400404B
:1009880080B483B000AF0346FB710A4BFA7992B288
:100998001A8200BF074B9B8A9BB203F00203002B0D
:1009A800F8D0044B1B8B00BF0C37BD465DF8047BA9
:1009B800704700BF0054004080B400AF00BF084B30
:1009C8009B8A9BB203F04003002BF8D0044B1B8A90
:1009D8009BB2DBB21846BD465DF8047B704700BF8A
:1009E8000054004080B400AF124A124B1B8A9BB2DD
:1009F80023F002039BB213820F4B1B78DBB2002B50
:100A080006D10C4B00225A620B4B01221A700BE0E4
:100A1800094B1B78DBB2012B06D1064B5B6B074AEF
:100A28001360054B00221A7000BFBD465DF8047BB9
:100A3800704700BF00000140340000203000002053
:100A480080B500AF094B1B8A9BB203F00103002B52
:100A58000AD0064A054B1B8A9BB223F001039BB2BE
:100A68001382034B1B68984700BF80BD00040040F9
:100A78004C00002080B485B000AF78600023FB6094
:100A88000023BB600023FB600EE00023BB6003E093
:100A980000BFBB680133BB60BB6840F2E1429342D0
:100AA800F6D9FB680133FB60FA687B689A42ECD39D
:100AB80000BF1437BD465DF8047B704790B585B01C
:100AC80000AF78600023FB730023FB7319E000BFBD
:100AD800FFF704FE0346002BFAD0FB7B7A68D41894
:100AE800FFF7FCFD034623704FF47A70FFF7C2FF4F
:100AF800FB7B2A2219460120FFF7D5FCFB7B01333B
:100B0800FB73FB7B032BE2D900BF1437BD4690BDB6
:100B180080B584B000AF78600023FB730123BB73FA
:100B28000023FB731FE000BFFFF7D8FD0346002B2F
:100B3800FAD0FFF7D3FD03467B734FF47A70FFF7C3
:100B480099FFFB7B2A2219460120FFF7ACFCFB7BAF
:100B58007A6813441B787A7B9A4201D00023BB73CE
:100B6800FB7B0133FB73FB7B032BDCD9BB7B184678
:100B78001037BD4680BD000080B582B000AF0023AD
:100B88007B710023FB710023BB71FFF70DFE00F0A2
:100B980035F9FFF739FCFFF769FDFFF711FBFFF7A0
:100BA800C9FC7B1D1946FF20FFF73EFB7B79522BC2
:100BB80039D0FFF7D7FB454A00210020FFF7A5FCF5
:100BC8004348FFF77BFFFFF7CDFB424A0021002097
:100BD800FFF79BFC3E48FFF79BFF0346012BE8D13C
:100BE800FFF7C0FB3C4A00210020FFF78EFC4FF4C2
:100BF800FA60FFF73FFF5221FF20FFF7E7FA0023D3
:100C0800BB710CE0BB799BB2F03398B2BB79304A28
:100C1800D35C1946FFF7DAFABB790133BB71BB79AC
:100C2800032BEFD949E00023BB710CE0BB799BB2E1
:100C3800F03398B2BB79264A13441946FFF7F4FA01
:100C4800BB790133BB71BB79032BEFD9FFF78AFB63
:100C5800224A00210020FFF758FC1DE0FB79022BF7
:100C680010D9FFF77FFB1E4A00210020FFF74DFC3B
:100C7800FFF77CFC41F28830FFF7FCFEFFF786FCAB
:100C88000023FB71FB790133FB71FFF76BFB134A00
:100C980000210020FFF739FC0D48FFF739FF034614
:100CA800012BDBD1FFF75EFB0E4A00210020FFF786
:100CB8002CFC4FF4FA60FFF7DDFEFFF753FB0A4AFE
:100CC80000210020FFF721FCFEE700BF54100008B8
:100CD80050000020641000087410000880100008FC
:100CE80090100008A0100008AC100008DFF834D0FD
:100CF800002103E00C4B5B58435004310B480C4B6C
:100D080042189A42F6D30B4A02E0002342F8043B09
:100D1800094B9A42F9D300F03BF800F067F9FFF766
:100D28002BFF704700800120C01000080000002041
:100D3800140000201400002054000020FEE780B4B6
:100D480000AF00BFBD465DF8047B704780B400AFBC
:100D5800FEE780B400AFFEE780B400AFFEE780B4E2
:100D680000AFFEE780B400AF00BFBD465DF8047B6E
:100D7800704780B400AF00BFBD465DF8047B704784
:100D880080B400AF00BFBD465DF8047B704700002B
:100D980080B500AF164A164BD3F8883043F4700379
:100DA800C2F88830134A134B1B6843F001031360E1
:100DB800104B00229A600F4A0E4B1B6823F0847375
:100DC80023F4803313600B4B0B4A5A60094A094BD2
:100DD8001B6823F480231360064B0022DA6000F0BE
:100DE80089F8034B4FF000629A6000BF80BD00BFD6
:100DF80000ED00E0003802401030002480B487B0D5
:100E080000AF00233B6100237B610223FB600023CA
:100E1800BB6002237B60324B9B6803F00C033B6191
:100E28003B69042B07D0082B09D0002B3DD12D4B53
:100E38002D4A1A603DE02B4B2C4A1A6039E0284BAA
:100E48005B689B0D03F00103BB60254B5B6803F0F7
:100E58003F037B60BB68002B0CD0244A7B68B2FB45
:100E6800F3F31F4A52689209C2F3080202FB03F324
:100E78007B610BE01C4A7B68B2FBF3F3184A5268AB
:100E88009209C2F3080202FB03F37B61144B5B680F
:100E98001B0C03F0030301335B00FB607A69FB68FA
:100EA800B2FBF3F30F4A136003E00E4B0E4A1A60CD
:100EB80000BF0B4B9B681B0903F00F030C4AD35C64
:100EC800DBB23B61074B1A683B6922FA03F3054A18
:100ED800136000BF1C37BD465DF8047B704700BF38
:100EE80000380240000000200024F40040787D0112
:100EF8000400002080B483B000AF00237B6000238F
:100F08003B60364A354B1B6843F480331360334BE0
:100F18001B6803F400333B607B6801337B603B68EC
:100F2800002B03D17B68B3F5A06FF0D12B4B1B6866
:100F380003F40033002B02D001233B6001E00023BF
:100F48003B603B68012B42D1244A244B1B6C43F085
:100F580080531364224A224B1B6843F440431360B6
:100F68001E4A1E4B9B6893601C4A1C4B9B6843F4AB
:100F780000439360194A194B9B6843F4A05393604C
:100F8800164B184A5A60154A144B1B6843F0807375
:100F9800136000BF114B1B6803F00073002BF9D0DE
:100FA800114B40F205721A600C4A0C4B9B6823F0F7
:100FB80003039360094A094B9B6843F0020393605B
:100FC80000BF064B9B6803F00C03082BF9D100BF48
:100FD8000C37BD465DF8047B704700BF00380240FF
:100FE8000070004019544007003C024070B50D4E97
:100FF8000D4CA41BA4100025A54209D10B4E0C4C86
:1010080000F018F8A41BA4100025A54205D170BD56
:1010180056F8253098470135EEE756F825309847B9
:101028000135F2E7B8100008B8100008B810000839
:10103800BC100008F8B500BFF8BC08BC9E46704755
:0C104800F8B500BFF8BC08BC9E4670471D
:10105400456E74657220706173733A20000000005D
:10106400436F6E6669726D20706173733A2000007D
:101074005375636365737320000000004368656300
:101084006B20706173733A2000000000556E617527
:1010940074686F72697A656420000000436F6E663D
:1010A40069726D65642000005768696C65203120A1
:0410B4000000000038
:0410B800AD0100087E
:0410BC00890100089E
:1010C000007A030A0000000000000000010203048F
:0410D00006070809FE
:0400000508000CF5EE
:00000001FF
