:020000040800F2
:1000000000800120CD2500081F2600082D260008AD
:1000100033260008392600083F26000800000000AB
:10002000000000000000000000000000452600085D
:10003000532600080000000061260008491F000840
:100040001D2600081D2600081D2600081D26000884
:100050001D2600081D260008A9190008DD0D00084E
:10006000CD1900081D2600081D2600081D260008C1
:100070001D2600081D2600081D2600081D26000854
:100080001D2600081D2600081D2600081D26000844
:100090001D2600081D2600081D2600081D26000834
:1000A0001D2600081D2600081D260008F521000851
:1000B0001D260008512200081D2600081D260008E4
:1000C0001D2600081D2600081D2600081D26000804
:1000D0001D2600081D2600081D2600081D260008F4
:1000E000F90D00081D2600081D2600081D26000821
:1000F0001D2600081D2600081D2600081D260008D4
:100100001D2600081D2600081D2600081D260008C3
:100110001D2600081D2600081D2600081D260008B3
:100120001D2600081D2600081D2600081D260008A3
:100130001D2600081D2600081D2600081D26000893
:100140001D2600081D2600081D2600081D26000883
:100150001D2600081D2600081D2600081D26000873
:100160001D2600081D2600081D2600081D26000863
:100170001D2600081D2600081D2600081D26000853
:080180001D2600081D260008E1
:1001880010B5054C237833B9044B13B10448AFF3C9
:1001980000800123237010BD14000020000000001F
:1001A800002B000808B5034B1BB103490348AFF304
:1001B800008008BD0000000018000020002B000887
:1001C800034613F8012B002AFBD1181A013870478F
:1001D80081F0004102E000BF83F0004330B54FEAF0
:1001E80041044FEA430594EA050F08BF90EA020F5D
:1001F8001FBF54EA000C55EA020C7FEA645C7FEAF0
:10020800655C00F0E2804FEA5454D4EB5555B8BF12
:100218006D420CDD2C4480EA020281EA030382EA83
:10022800000083EA010180EA020281EA0303362D15
:1002380088BF30BD11F0004F4FEA01314FF4801CE8
:100248004CEA113102D0404261EB410113F0004FFA
:100258004FEA03334CEA133302D0524263EB4303B1
:1002680094EA050F00F0A780A4F10104D5F1200E4F
:100278000DDB02FA0EFC22FA05F2801841F10001AA
:1002880003FA0EF2801843FA05F359410EE0A5F17E
:1002980020050EF1200E012A03FA0EFC28BF4CF0AF
:1002A800020C43FA05F3C01851EBE37101F0004565
:1002B80007D54FF0000EDCF1000C7EEB00006EEB72
:1002C8000101B1F5801F1BD3B1F5001F0CD34908FC
:1002D8005FEA30004FEA3C0C04F101044FEA445253
:1002E80012F5800F80F09A80BCF1004F08BF5FEADA
:1002F800500C50F1000041EB045141EA050130BDBA
:100308005FEA4C0C404141EB010111F4801FA4F15C
:100318000104E9D191F0000F04BF01460020B1FAB1
:1003280081F308BF2033A3F10B03B3F120020CDAE9
:100338000C3208DD02F1140CC2F10C0201FA0CF0C7
:1003480021FA02F10CE002F11402D8BFC2F1200C2C
:1003580001FA02F120FA0CFCDCBF41EA0C019040E2
:10036800E41AA2BF01EB0451294330BD6FEA04042B
:100378001F3C1CDA0C340EDC04F11404C4F1200216
:1003880020FA04F001FA02F340EA030021FA04F328
:1003980045EA030130BDC4F10C04C4F1200220FA7F
:1003A80002F001FA04F340EA0300294630BD21FABD
:1003B80004F0294630BD94F0000F83F4801306BF83
:1003C80081F480110134013D4EE77FEA645C18BF77
:1003D8007FEA655C29D094EA050F08BF90EA020F0E
:1003E80005D054EA000C04BF1946104630BD91EA06
:1003F800030F1EBF0021002030BD5FEA545C05D109
:100408004000494128BF41F0004130BD14F5800447
:100418003CBF01F5801130BD01F0004545F0FE41BB
:1004280041F470014FF0000030BD7FEA645C1ABFF0
:10043800194610467FEA655C1CBF0B46024650EA27
:10044800013406BF52EA033591EA030F41F4002153
:1004580030BD00BF90F0000F04BF0021704730B5D9
:100468004FF4806404F132044FF000054FF00001AE
:1004780050E700BF90F0000F04BF0021704730B56F
:100488004FF4806404F1320410F0004548BF404244
:100498004FF000013EE700BF42004FEAE2014FEA99
:1004A80031014FEA02701FBF12F07F4393F07F4F74
:1004B80081F06051704792F0000F14BF93F07F4FA6
:1004C800704730B54FF4607401F0004521F00041E9
:1004D80020E700BF50EA010208BF704730B54FF06F
:1004E80000050AE050EA010208BF704730B511F074
:1004F800004502D5404261EB41014FF4806404F1AC
:1005080032045FEA915C3FF4DCAE4FF003025FEA2D
:10051800DC0C18BF03325FEADC0C18BF033202EBB5
:10052800DC02C2F1200300FA03FC20FA02F001FA0F
:1005380003FE40EA0E0021FA02F11444C1E600BFAE
:1005480070B54FF0FF0C4CF4E06C1CEA11541DBF61
:100558001CEA135594EA0C0F95EA0C0F00F0DEF82C
:100568002C4481EA030621EA4C5123EA4C5350EA11
:10057800013518BF52EA033541F4801143F4801362
:1005880038D0A0FB02CE4FF00005E1FB02E506F0F3
:100598000042E0FB03E54FF00006E1FB03569CF048
:1005A800000F18BF4EF0010EA4F1FF04B6F5007F4E
:1005B80064F5407404D25FEA4E0E6D4146EB0606C0
:1005C80042EAC62141EA55514FEAC52040EA5E5049
:1005D8004FEACE2EB4F1FD0C88BFBCF5E06F1ED8F3
:1005E800BEF1004F08BF5FEA500E50F1000041EB2A
:1005F800045170BD06F0004646EA010140EA0200D7
:1006080081EA0301B4EB5C04C2BFD4EB0C0541EAF8
:10061800045170BD41F480114FF0000E013C00F30D
:10062800AB8014F1360FDEBF002001F0004170BD31
:10063800C4F10004203C35DA0C341BDC04F114044A
:10064800C4F1200500FA05F320FA04F001FA05F2D6
:1006580040EA020001F0004221F0004110EBD370A3
:1006680021FA04F642EB06015EEA430E08BF20EACF
:10067800D37070BDC4F10C04C4F1200500FA04F372
:1006880020FA05F001FA04F240EA020001F0004104
:1006980010EBD37041F100015EEA430E08BF20EA77
:1006A800D37070BDC4F1200500FA05F24EEA020EBF
:1006B80020FA04F301FA05F243EA020321FA04F0EE
:1006C80001F0004121FA04F220EA020000EBD370A5
:1006D8005EEA430E08BF20EAD37070BD94F0000FA5
:1006E8000FD101F00046400041EB010111F4801FD9
:1006F80008BF013CF7D041EA060195F0000F18BF8A
:10070800704703F00046520043EB030313F4801FC5
:1007180008BF013DF7D043EA0603704794EA0C0F7F
:100728000CEA135518BF95EA0C0F0CD050EA410695
:1007380018BF52EA4306D1D181EA030101F0004112
:100748004FF0000070BD50EA410606BF104619463A
:1007580052EA430619D094EA0C0F02D150EA013646
:1007680013D195EA0C0F05D152EA03361CBF104687
:1007780019460AD181EA030101F0004141F0FE4126
:1007880041F470014FF0000070BD41F0FE4141F4AA
:10079800780170BD70B54FF0FF0C4CF4E06C1CEAAA
:1007A80011541DBF1CEA135594EA0C0F95EA0C0F5F
:1007B80000F0A7F8A4EB050481EA030E52EA03351A
:1007C8004FEA013100F088804FEA03334FF080553B
:1007D80045EA131343EA12634FEA022245EA111568
:1007E80045EA10654FEA00260EF000419D4208BF19
:1007F800964244F1FD0404F5407402D25B084FEAC6
:100808003202B61A65EB03055B084FEA32024FF471
:1008180080104FF4002CB6EB020E75EB030E22BFCE
:10082800B61A754640EA0C005B084FEA3202B6EB8E
:10083800020E75EB030E22BFB61A754640EA5C003D
:100848005B084FEA3202B6EB020E75EB030E22BFCD
:10085800B61A754640EA9C005B084FEA3202B6EBCE
:10086800020E75EB030E22BFB61A754640EADC008D
:1008780055EA060E18D04FEA051545EA16754FEAEF
:1008880006164FEAC30343EA52734FEAC2025FEA0D
:100898001C1CC0D111F4801F0BD141EA00014FF09C
:1008A80000004FF0004CB6E711F4801F04BF01436D
:1008B8000020B4F1FD0C88BFBCF5E06F3FF6AFAE89
:1008C800B5EB030C04BFB6EB020C5FEA500C50F119
:1008D800000041EB045170BD0EF0004E4EEA11319C
:1008E80014EB5C04C2BFD4EB0C0541EA045170BDA3
:1008F80041F480114FF0000E013C90E645EA060EE7
:100908008DE60CEA135594EA0C0F08BF95EA0C0F14
:100918003FF43BAF94EA0C0F0AD150EA01347FF45C
:1009280034AF95EA0C0F7FF425AF104619462CE733
:1009380095EA0C0F06D152EA03353FF4FDAE104696
:10094800194622E750EA410618BF52EA43067FF4E7
:10095800C5AE50EA41047FF40DAF52EA43057FF477
:10096800EBAE12E74A0011D212F5001211D20DD5E2
:100978006FF47873B3EB62520ED44FEAC12343F09D
:10098800004343EA505323FA02F070474FF0000047
:10099800704750EA013002D14FF0FF3070474FF0F6
:1009A800000070474FEA4102B2F1E04324BFB3F5BB
:1009B800001CDCF1FE5C0DD901F0004C4FEAC002CE
:1009C8004CEA5070B2F1004F40EB830008BF20F0B2
:1009D8000100704711F0804F21D113F13872BCBF6C
:1009E80001F00040704741F480114FEA5252C2F1C1
:1009F8001802C2F1200C10FA0CF320FA02F018BF0A
:100A080040F001004FEAC1234FEAD32303FA0CFC5C
:100A180040EA0C0023FA02F34FEA4303CCE77FEAEB
:100A2800625307D150EA01331EBF4FF0FE4040F435
:100A38004000704701F0004040F0FE4040F40000E4
:100A4800704700BF90B585B000AF78600023FB7396
:100A580019E000BF01F000F80346002BFAD0FB7B39
:100A68007A68D41800F0F8FF034623704FF47A70C0
:100A780001F07AFDFB7B2A221946012000F02BFCAD
:100A8800FB7B0133FB73FB7B032BE2D900BF1437DD
:100A9800BD4690BD80B584B000AF78600023FB737D
:100AA8000123BB730023FB731FE000BF00F0D4FFDA
:100AB8000346002BFAD000F0CFFF03467B734FF4B8
:100AC8007A7001F051FDFB7B2A221946012000F0C3
:100AD80002FCFB7B7A6813441B787A7B9A4201D02C
:100AE8000023BB73FB7B0133FB73FB7B032BDCD93C
:100AF800BB7B18461037BD4680BD000080B582B06C
:100B080000AF0023FB7100F045FB1D4A00210020C7
:100B180000F013FC1B48FFF795FF00F03BFB1A4A57
:100B28000021002000F009FC1648FFF7B3FF034638
:100B3800012BE8D100F02EFB144A0021002000F020
:100B4800FCFB4FF4FA6001F00FFD5121FF2000F08B
:100B580055FA0023FB710CE0FB799BB2F03398B295
:100B6800FB79084AD35C194600F048FAFB7901334F
:100B7800FB71FB79032BEFD900BF0837BD4680BD59
:100B8800182B00083C000020282B0008382B0008F0
:100B980080B582B000AF0023FB710023BB71002336
:100BA800FB710CE0FB799BB2F03398B2FB79234AD6
:100BB8001344194600F050FAFB790133FB71FB79B5
:100BC800032BEFD900F0E6FA1D4A0021002000F0BF
:100BD800B4FB1DE0BB79022B10D900F0DBFA194AEF
:100BE8000021002000F0A9FB00F0CEFC41F2883083
:100BF80001F0BAFC00F0D8FC0023BB71BB790133CB
:100C0800BB7100F0C7FA0E4A0021002000F095FBE6
:100C18000A48FFF73FFF0346012BDBD100F0BAFA81
:100C2800094A0021002000F088FB4FF4FA6001F027
:100C38009BFC00BF0837BD4680BD00BF3C000020BC
:100C4800442B0008542B0008642B000880B500AF23
:100C5800FFF79EFFFFF752FF00BF80BD80B582B04F
:100C680000AF0023FB7100F095FA1A4A002100201A
:100C780000F063FB184A0021012000F05EFB00BF72
:100C880000F0EAFE0346002BFAD000F0E5FE03462A
:100C9800FB714FF47A7001F067FCFB79012B02D0ED
:100CA800022B10D012E0FFF773FF012000F0C7FB02
:100CB80041F2883001F058FC002000F0C0FB05200C
:100CC80000F0BEFC02E0FFF7C1FF00BF00BF08371D
:100CD800BD4680BD702B00087C2B000880B58AB00B
:100CE80000AF00237B62012000F0C4FF234A0021EB
:100CF800002000F022FB00F0FBFF03467B627B6ACA
:100D08004FF4A57202FB03F31B0B7B621C4A0521FF
:100D1800012000F012FB7A6A0521012000F074FB23
:100D28007B6A192B1FD900F02FFC4FF47A721549F2
:100D3800154800F0A9FB0346002B0DD00A2001F04E
:100D480013FC3B1D7A6A1149184601F09BFE3B1DB6
:100D580019460F4801F0CEFB40F6B83001F004FC0C
:100D680000F022FC01E000F01FFC41F2883001F0A5
:100D7800FBFB00BF2837BD4680BD00BF8C2B000899
:100D88009C2B0008A42B0008A82B0008B82B0008EF
:100D98000010014080B582B000AF00F0E5FE0346C8
:100DA800FB80FB88132B10D800F0F4F9FB88184659
:100DB80000F0D8FA00F024FC4FF4FA6001F0D4FBFC
:100DC80000F02EFC062000F03BFC00BF0837BD46B3
:100DD80080BD000080B500AF044A044B5B6943F056
:100DE80002035361FFF73AFF00BF80BD003C01409A
:100DF80080B500AF104B5B6903F40063002B09D08A
:100E08000D4A0D4B5B6943F4006353610F2000F0FA
:100E18006BFC0EE0084B5B6903F48053002B08D091
:100E2800054A054B5B6943F480535361F02000F099
:100E38005BFC00BF80BD00BF003C014080B500AF37
:100E48004FF47A723449354800F01EFB0346002BF4
:100E580004D03349334801F04DFB03E032493148AF
:100E680001F048FB642001F07FFB4FF47A722A49B5
:100E78002E4800F009FB0346002B04D02C492948D2
:100E880001F038FB03E02B49264801F033FB6420CE
:100E980001F06AFB4FF47A721F49274800F0F4FA10
:100EA8000346002B04D025491E4801F023FB03E02C
:100EB80023491C4801F01EFB642001F055FB42F257
:100EC800107215491F4800F0DFFA0346002B04D0C2
:100ED8001D49144801F00EFB03E01C49114801F0BC
:100EE80009FB642001F040FB42F210720A491848DD
:100EF80000F0CAFA0346002B04D01649094801F04D
:100F0800F9FA03E01449074801F0F4FA642001F003
:100F18002BFB00BF80BD00BFA42B0008D82B000806
:100F2800E02B000800440040EC2B0008FC2B0008D4
:100F3800042C0008142C0008282C0008382C000861
:100F48004C2C0008602C0008882C00089C2C0008F9
:100F5800AC2C0008D82C0008E82C000880B582B01A
:100F680000AF0023FB7100F039FE01F0B3FB00F085
:100F780063F900F039FD00F03BF800F0E9FA00F001
:100F880058FA00F059FE00F0CDFD00F01DFBFF20DF
:100F980000F06CFB4FF4E131114801F06FF94FF4A8
:100FA800E131104801F06AF9FFF748FF0E490320C4
:100FB80000F0AEFB0D49012000F0AAFB0B4902200E
:100FC80000F0A6FBFB1D1946FF2000F045F8FB7951
:100FD800512B01D0FFF792FD00BF0837BD4680BDF9
:100FE8000010014000440040DD0D0008F90D000824
:100FF80080B500AF00F096FE00BF80BD80B584B01C
:1010080000AF03460A46FB8013467B71FB881B1220
:10101800DBB203F00703FB73FB88BB73FB7B5B004E
:101028005BB263F05F035BB27B7300F0F3FE7B7B24
:10103800184600F035FFBB7B184600F017FF7B7998
:10104800184600F013FF00F0FFFE0F2001F08CFAA5
:1010580000BF1037BD4680BD80B584B000AF0346E1
:101068003960FB80FB881B12DBB203F00703FB73BC
:10107800FB88BB73FB7B5B005BB263F05F035BB217
:101088007B7300F0C7FE7B7B184600F009FFBB7B33
:10109800184600F0EBFE00F0BDFE7B7B43F0010339
:1010A800DBB2184600F0FCFE00F016FF03461A46B5
:1010B8003B681A7000F0C8FE0F2001F055FA00BF17
:1010C8001037BD4680BD80B582B000AF03460A46E2
:1010D800FB711346BB71FB79002B06D1BB79803BB2
:1010E800DBB2184600F00EF808E0FB79012B05D1B9
:1010F800BB79403BDBB2184600F004F800BF083764
:10110800BD4680BD80B582B000AF0346FB71204A62
:101118001F4B5B6923F4807353611D4A1C4B5B6949
:1011280023F4704353611A49194B5B69FA79120920
:10113800D2B2120313434B61154A154B5B6943F056
:1011480020035361124A124B5B6923F02003536159
:101158000F4A0F4B5B6923F4704353610C490C4BE6
:101168005B69FA79120313434B61094A084B5B69BF
:1011780043F020035361064A054B5B6923F02003C3
:101188005361012001F0F0F900BF0837BD4680BD6A
:101198000004024080B500AF0120FFF7B3FF05202F
:1011A80001F0E2F900BF80BD80B582B000AF034610
:1011B800FB71204A1F4B5B6943F4807353611D4ADE
:1011C8001C4B5B6923F4704353611A49194B5B69E3
:1011D800FA791209D2B2120313434B61154A154B1F
:1011E8005B6943F020035361124A124B5B6923F099
:1011F800200353610F4A0F4B5B6923F4704353611B
:101208000C490C4B5B69FA79120313434B61094A89
:10121800084B5B6943F020035361064A054B5B6941
:1012280023F020035361012001F09EF900BF083725
:10123800BD4680BD0004024080B500AF1D4A1D4B6D
:101248001B6B43F0020313631B4A1B4B1B6823F001
:101258007F431360184A184B1B6843F0AA43136076
:10126800154A154B5B6923F470435361124A124BBC
:101278001B6823F4433313600F4A0F4B1B6843F476
:10128800823313600C4A0C4B5B6923F490735361EF
:101298004FF4FA7001F068F92820FFF733FF0C20AB
:1012A800FFF730FF0620FFF72DFFFFF773FF00BFA2
:1012B80080BD00BF003802400004024080B582B003
:1012C80000AF0346FB71FB791846FFF76DFF00BFBF
:1012D8000837BD4680BD80B582B000AF0346FB71BC
:1012E8000B46BB7113467B71BA79FB7911461846D8
:1012F800FFF7E9FE7B791846FFF7E0FF00BF0837E4
:10130800BD4680BD80B584B000AF78600023FB7314
:1013180009E0FB7B7A6813441B781846FFF7CEFF79
:10132800FB7B0133FB73FB7B7A6813441B78002B30
:10133800EFD100BF1037BD4680BD80B582B000AF89
:1013480003463A60FB710B46BB71BA79FB791146CB
:101358001846FFF7B8FE3868FFF7D4FF00BF083714
:10136800BD4680BD80B59CB000AF7860002387F88B
:101378006F301EE097F86F007968224BA3FB0123BA
:10138800DA0813469B0013445B00CA1AD3B2303301
:10139800DAB207F17003034403F8682C97F86F304A
:1013A800013387F86F307B68164AA2FB0323DB08FA
:1013B8007B607B68002BDDD197F86F3007F17002F6
:1013C8001344002203F8682C97F86F3087F86E30C2
:1013D8000FE097F86E30013B07F17002134413F8E1
:1013E800683C1846FFF76AFF97F86E30013B87F8AC
:1013F8006E3097F86E30002BEBD100BF7037BD46CA
:1014080080BD00BFCDCCCCCC80B582B000AF034648
:101418003A60FB710B46BB71BA79FB7911461846E5
:10142800FFF751FE3868FFF79DFF00BF0837BD463C
:1014380080BD80B500AF00F01DFE00BF80BD80B547
:1014480082B000AF0346FB71FB79012B08D0022B59
:101458000AD0002B00D00BE0072000F09BFE07E02D
:101468000C2000F097FE03E0022000F093FE00BF7E
:101478004FF4167001F078F8002000F08BFE00BFE2
:101488000837BD4680BD000080B588B000AFF86061
:10149800B9607A600023FB770023FB740023BB61EB
:1014A800B868FEF78DFE7861F9681B4801F022F8EC
:1014B80000F028FD20E0BA697B699A4216D207F14C
:1014C80013031946144801F032F80346002B13D0D1
:1014D800BA68BB6913441A78FB7C9A4203D1BB698A
:1014E8000133BB6108E00023BB6105E0BA697B6991
:1014F8009A4201D10123FB7700F016FD03461A46F4
:101508007B689A4202D2FB7F002BD4D0FB7F18461F
:101518002037BD4680BD00BF0010014080B483B0B5
:1015280000AF0346FB71094997F907305B09FA795F
:1015380002F01F02012000FA02F241F8232000BF46
:101548000C37BD465DF8047B704700BF00E100E042
:1015580080B500AF0A4A0A4B1B6B43F004031363C0
:10156800084A084B1B6823F440731360054A054B6F
:101578001B6843F48073136000F016F800BF80BD49
:10158800003802400008024080B400AF054A054B0D
:101598005B6943F01003536100BFBD465DF8047BEF
:1015A800704700BF0008024080B400AF054A054BF1
:1015B8005B6923F01003536100BFBD465DF8047BEF
:1015C800704700BF0008024080B500AF0A4A0A4BC6
:1015D8001B6B43F004031363084A084B1B6823F092
:1015E80040631360054A054B1B6843F08063136032
:1015F80000F016F800BF80BD003802400008024025
:1016080080B400AF054A054B5B6943F4005353614E
:1016180000BFBD465DF8047B704700BF000802406C
:1016280080B400AF054A054B5B6923F4005353614E
:1016380000BFBD465DF8047B704700BF000802404C
:1016480080B483B000AF0346FB710749064B5B6962
:10165800FA79012000FA02F213434B6100BF0C37FC
:10166800BD465DF8047B70470008024080B582B033
:1016780000AF0346FB710F4A0E4B1B6B43F004038C
:1016880013630D4A0C4B1B6823F07F7323F47F33DD
:101698001360094A084B1B6843F0AA7343F4AA3342
:1016A8001360FB79184600F009F800BF0837BD46FB
:1016B80080BD00BF003802400008024080B483B0FB
:1016C80000AF0346FB710749064B5B69FA79520183
:1016D800D24313404B6100BF0C37BD465DF8047B15
:1016E800704700BF0008024080B483B000AF0346D3
:1016F800FB710649054B5B69FA79520153404B610E
:1017080000BF0C37BD465DF8047B704700080240F7
:1017180080B582B000AF03463960FB71954A954B9E
:101728005B6C43F480435364FB79042B00F21D8106
:1017380001A252F823F000BF551700082D18000821
:10174800C31700089718000805190008894A894B2B
:101758001B6B43F008031363874A874B1B6823F00E
:1017680030031360844A844BDB6823F03003D36072
:10177800814A814BDB6843F01003D3607F4A3B68A2
:1017880013607F4A7E4B9B6823F4706393607C4AA6
:101798007B4B9B6843F4407393607A4A794BDB68D0
:1017A80043F00403D360774A764B1B6843F0040385
:1017B80013600820FFF7B2FED8E06E4A6D4B1B6B32
:1017C80043F001031363704A6F4B1B6823F04073A7
:1017D80013606D4A6C4BDB6823F04073D3606A4A30
:1017E800694BDB6843F08073D360684A3B681360D9
:1017F800634A634B5B6923F00F035361604A604B94
:101808005B6953615F4A5F4BDB6843F48053D36085
:101818005C4A5C4B1B6843F4805313602820FFF735
:101828007DFEA3E0534A534B1B6B43F00103136344
:10183800554A554B1B6823F440031360524A524BD8
:10184800DB6823F44003D3604F4A4F4BDB6843F413
:101858008003D3604E4A3B681360494A484B1B6972
:1018680023F470431361464A454B1B691361454A8B
:10187800444BDB6843F40063D360424A414B1B6826
:1018880043F4006313602820FFF748FE6EE0394AEE
:10189800384B1B6B43F0040313633E4A3D4B1B68F4
:1018A80023F00C0313603B4A3A4BDB6823F00C032C
:1018B800D360384A374BDB6843F00403D360364AB9
:1018C8003B6813602E4A2E4B9B6823F0F00393600D
:1018D8002B4A2B4B9B6843F020039360294A294BE2
:1018E800DB6843F00203D360264A264B1B6843F0AB
:1018F800020313600720FFF711FE37E01D4A1D4B56
:101908001B6B43F004031363224A224B1B6823F02A
:10191800030313601F4A1F4BDB6823F00303D360E4
:101928001C4A1C4BDB6843F00103D3601B4A3B682D
:101938001360134A124B9B6823F00F039360104AFD
:101948000F4B9B6843F0020393600E4A0D4BDB6814
:1019580043F00103D3600B4A0A4B1B6843F00103B1
:1019680013600620FFF7DAFD00E000BF00BF08376C
:10197800BD4680BD00380240000C024048000020EF
:1019880000380140003C01400000024040000020B7
:101998004C000020000802404400002050000020B5
:1019A80080B500AF054A054B5B6943F001035361FD
:1019B800034B1B68984700BF80BD00BF003C014037
:1019C8005000002080B500AF054A054B5B6943F025
:1019D80004035361034B1B68984700BF80BD00BFD9
:1019E800003C01404800002080B400AF174A174B64
:1019F8001B6B43F003031363154A154B1B6823F451
:101A08007C431360124A124B1B6843F4A8431360CB
:101A18000F4A0F4B5B6943F0E00353610D4A0D4BCE
:101A28001B6823F03F0313600A4A0A4BDB6823F064
:101A38003F03D360074A074BDB6843F01503D360C5
:101A480000BFBD465DF8047B704700BF0038024008
:101A5800000002400004024080B582B000AF0023BD
:101A68007B710023FB710023BB710023FB714CE0E9
:101A78002A492A4B5B69FA790532012000FA02F2F9
:101A8800D24313404B61012000F06EFD0023BB716F
:101A98002BE0234B1B69BA79012101FA02F21340AA
:101AA800002B1FD1FB791A4652001344DAB2BB79D6
:101AB8001344DBB201337B711849184B5B69FA791F
:101AC8000532012000FA02F213434B6100BF144BA8
:101AD8001B69BA79012101FA02F21340002BF6D0F2
:101AE8007B7916E0BB790133BB71BB79022BD0D966
:101AF8000A490A4B5B69FA790532012000FA02F2B9
:101B080013434B61FB790133FB71FB79022BAFD98E
:101B1800002318460837BD4680BD00BF00000240BC
:101B28000004024080B500AF0D4A0D4B1B6B43F01B
:101B3800010313630B4A0B4B1B6823F440731360B8
:101B4800084A084B1B6843F480731360054A054B29
:101B58005B6923F01003536100F01AFA00BF80BDDF
:101B6800003802400000024080B582B000AF002378
:101B78007B8000237B60164B00221A60154A154BA8
:101B88005B6943F010035361012000F0EDFC114A3A
:101B9800104B5B6923F01003536105E0012000F04E
:101BA800E3FC7B6801337B60094B1B68002B02D187
:101BB8007B68312BF2D9064B1B68074AA2FB03232B
:101BC8005B097B807B8818460837BD4680BD00BF0F
:101BD800340000200000024009CB3D8D80B400AFE6
:101BE800124A124B1B6843F0010313600F4B00228B
:101BF8009A600E4A0D4B1B6823F0A16323F48033CF
:101C080013600A4B0A4A5A60084B0A4AC3F88420F0
:101C1800064A064B1B6823F480231360034B0022FB
:101C2800DA6000BFBD465DF8047B704700380240AB
:101C3800103000240030002080B400AF0B4A0B4B5A
:101C48005B6C43F480735364094A094B9B6843F007
:101C580001039360064A064BDB6A23F47003D362E0
:101C680000BFBD465DF8047B704700BF00380240E6
:101C78000020014080B483B000AF0346FB71FB79BC
:101C8800002B02D0012B0DD019E0164A154B1B6B07
:101C980043F001031363144A134B1B6843F0030317
:101CA80013600CE00F4A0F4B1B6B43F001031363E7
:101CB8000D4A0D4B1B6843F00C03136000BF0B4A21
:101CC8000A4B5B6B23F01F0353630849074B5A6B9E
:101CD800FB7913434B6300BF0C37BD465DF8047BAB
:101CE800704700BF00380240000002400020014059
:101CF80080B400AF0A4A0A4B9B6843F08043936064
:101D080000BF074B1B6803F00203002BF9D0044BFC
:101D1800DB6C9BB21846BD465DF8047B704700BF7C
:101D28000020014080B500AF374A374B1B6B43F0AA
:101D380002031363344A344B1B6C43F400131364DB
:101D4800324A324B1B6823F4704313602F4A2F4BDF
:101D58001B6843F4204313602C4A2C4B5B6843F008
:101D6800C0035360294A294B1B6A23F07F4313623F
:101D7800264A264B1B6A43F080631362234A234B8F
:101D88001B6A43F080431362214A214B1B889BB294
:101D980023F001039BB213801D4A1D4B9B8B9BB202
:101DA800C3F30E039BB29383194A194B9B889BB2CA
:101DB80023F03F039BB29380154A154B9B889BB237
:101DC80043F002039BB29380114A114B9B8B9BB249
:101DD80023F47F6323F00F039BB293830C4A0C4BCD
:101DE8009B8B9BB243F00A039BB29383084A084B30
:101DF8001B889BB243F001039BB21380642000F060
:101E0800B3FB00BF80BD00BF0038024000040240A1
:101E18000054004080B400AF0A4A0A4B1B889BB2AA
:101E280043F480739BB2138000BF064B9B8A9BB21E
:101E380003F00103002BF8D000BFBD465DF8047B1A
:101E4800704700BF0054004080B400AF064A064BFC
:101E58001B889BB243F400739BB2138000BFBD463E
:101E68005DF8047B704700BF0054004080B483B025
:101E780000AF0346FB71094BFA7992B21A8200BF90
:101E8800064B9B8A9BB203F08003002BF8D000BF5F
:101E98000C37BD465DF8047B704700BF0054004016
:101EA80080B483B000AF0346FB710A4BFA7992B253
:101EB8001A8200BF074B9B8A9BB203F00203002BD8
:101EC800F8D0044B1B8B00BF0C37BD465DF8047B74
:101ED800704700BF0054004080B400AF00BF084BFB
:101EE8009B8A9BB203F04003002BF8D0044B1B8A5B
:101EF8009BB2DBB21846BD465DF8047B704700BF55
:101F08000054004080B400AF054A054B5B689360FD
:101F1800044B00221A6000BFBD465DF8047B704781
:101F280010E000E03000002080B400AF034B1B68D5
:101F38001846BD465DF8047B704700BF300000209E
:101F480080B400AF044B1B680133034A136000BF21
:101F5800BD465DF8047B70473000002080B483B034
:101F680000AF0346FB71094997F907305B09FA7915
:101F780002F01F02012000FA02F241F8232000BFFC
:101F88000C37BD465DF8047B704700BF00E100E0F8
:101F980080B500AF344A344B1B6B43F00103136325
:101FA800324A324B1B6823F4403313602F4A2F4BBD
:101FB8001B6843F4003313602C4A2C4B5B6A23F0F4
:101FC8000F035362294A294B5B6A43F001035362AA
:101FD800254A254B5B6C43F001035364244B0F22C5
:101FE8001A85234B4FF0FF32DA62214A204B1B8BB4
:101FF8009BB243F001039BB213831D4A1C4B1B8BFE
:102008009BB223F002039BB21383194A184B1B8C13
:102018009BB243F002039BB21384154A144B1B8CEA
:102028009BB243F008039BB21384114A104B1B8CDC
:102038009BB243F001039BB213840D4A0C4B1B88DF
:102048009BB243F001039BB21380094A084B9B895A
:102058009BB243F002039BB293811B20FFF77EFFE4
:1020680062B600BF80BD00BF0038024000000240D9
:102078000000014080B400AF414A414B1B6B43F064
:10208800020313633F4A3F4B1B6823F4402313604A
:102098003C4A3C4B1B6843F400231360394A394BD4
:1020A8005B6A23F0F0035362364A364B5B6A43F0AF
:1020B80020035362324A324B1B6C43F0040313640F
:1020C800314A324B1B683249A1FB03139B0C9BB26C
:1020D800013B9BB213852C4B44F62062DA622A4AF4
:1020E800294B9B8B9BB223F440739BB29383264A64
:1020F800254B9B8B9BB243F4E0439BB29383224ACC
:10210800214B9B8B9BB223F480539BB293831E4A33
:102118001D4B9B8B9BB243F400639BB293831A4A7B
:10212800194B1B889BB243F080039BB21380164A5D
:10213800154B9B8A9BB243F001039BB29382124AD0
:10214800114BB3F844309BB26FEA43436FEA5343F1
:102158009BB2A2F844300C4A0B4B1B8C9BB243F445
:1021680080539BB21384084A074B1B889BB243F0E9
:1021780001039BB2138000BFBD465DF8047B704726
:10218800003802400004024000080040000000201F
:1021980083DE1B43F0B583B000AF0346FB71114CDF
:1021A800104BDB6A1846FEF755F905460E46FB79D3
:1021B8001846FEF75FF94FF000020B4BFEF7EAFAFC
:1021C80002460B4628463146FEF7BAF902460B4648
:1021D80010461946FEF7C6FB0346236400BF0C37BA
:1021E800BD46F0BD000800400000594080B400AF73
:1021F800124A124B1B8A9BB223F002039BB2138232
:102208000F4B1B78DBB2002B06D10C4B00225A6215
:102218000B4B01221A700BE0094B1B78DBB2012B28
:1022280006D1064B5B6B074A1360054B00221A70F8
:1022380000BFBD465DF8047B704700BF0000014049
:10224800380000203400002080B500AF094B1B8AFD
:102258009BB203F00103002B0AD0064A054B1B8AE8
:102268009BB223F001039BB21382034B1B68984770
:1022780000BF80BD0004004054000020B0B586B007
:1022880000AFF860B960FB68874A93423CD1874A3F
:10229800864B1B6B43F001031363854A844B1B6811
:1022A80023F030031360824A814B1B6823F0C0037C
:1022B80013607F4A7E4B1B6843F0200313607C4AFF
:1022C8007B4B1B6843F080031360794A784B1B6A89
:1022D80023F470631362764A754B1B6A23F47043C8
:1022E8001362734A724B1B6A43F4E0631362704AC9
:1022F8006F4B1B6A43F4E04313626C4A6B4B1B6CD5
:1023080043F40033136480E0FB686A4A93423CD18B
:10231800664A664B1B6B43F001031363644A644BC4
:102328001B6823F440231360614A614B1B6823F444
:10233800401313605E4A5E4B1B6843F4002313602E
:102348005B4A5B4B1B6843F400131360584A584BB5
:102358005B6A23F0F0035362554A554B5B6A23F4DA
:1023680070635362524A524B5B6A43F07003536284
:102378004F4A4F4B5B6A43F4E06353624B4A4B4B03
:102388005B6C43F0100353643FE0FB684A4A934296
:102398003BD1464A454B1B6B43F004031363444A45
:1023A800434B1B6823F440531360414A404B1B685E
:1023B80023F4404313603E4A3D4B1B6843F40053EB
:1023C80013603B4A3A4B1B6843F400431360384A96
:1023D800374B1B6A23F070631362354A344B1B6A10
:1023E80023F070431362324A314B1B6A43F0006397
:1023F80013622F4A2E4B1B6A43F0004313622B4A89
:102408002A4B5B6C43F0200353642C4B1B68184623
:10241800FEF720F804460D46B868FEF71BF84FF0A3
:102428000002274BFEF78CF802460B462046294649
:10243800FEF7B0F903460C4618462146FEF7B2FAF5
:1024480003467B61D7ED057AFCEEE77AC7ED017AA2
:10245800BB887B827B8A07EE903AF8EEE77A97EDA5
:10246800057A77EE677AB3EE007A67EE877AFCEE44
:10247800E77AC7ED017A3B797B747B8A1B019AB2B4
:102488007B7C9BB213449AB2FB681A81FB689B89D8
:102498009BB243F4005343F00C039AB2FB689A8151
:1024A80000BF1837BD46B0BD0044004000380240A8
:1024B800000002400010014000140140000000200C
:1024C8000000304080B483B000AF78600B46FB70EA
:1024D80000BF7B681B889BB203F08003002BF8D0F9
:1024E800FB789AB27B689A8000BF0C37BD465DF8CE
:1024F800047B704780B584B000AF786039600023F2
:10250800FB600AE03A68FB6813441B781946786850
:10251800FFF7D8FFFB680133FB603A68FB68134498
:102528001B78002BEED100BF1037BD4680BD80B4AC
:1025380085B000AF786039600023FB737B681B8827
:102548009BB203F02003002B07D07B689B889BB2CB
:10255800DAB23B681A700123FB73FB7B1846143709
:10256800BD465DF8047B704780B485B000AF7860E5
:102578000023FB600023BB600023FB600EE0002308
:10258800BB6003E000BFBB680133BB60BB6840F2BF
:10259800E1429342F6D9FB680133FB60FA687B6835
:1025A8009A42ECD300BF1437BD465DF8047B7047F0
:1025B80080B500AFFEF7D2FCFEF7ECFBFEF78EFB12
:1025C800FAE70000DFF834D0002103E00C4B5B5839
:1025D800435004310B480C4B42189A42F6D30B4A2D
:1025E80002E0002342F8043B094B9A42F9D300F079
:1025F8003BF800F05DFAFFF7DBFF70470080012031
:10260800FC2C00080000002014000020140000200A
:1026180058000020FEE780B400AF00BFBD465DF85B
:10262800047B704780B400AFFEE780B400AFFEE7DC
:1026380080B400AFFEE780B400AFFEE780B400AF1F
:1026480000BFBD465DF8047B704780B400AF00BF93
:10265800BD465DF8047B704780B400AF00BFBD463F
:102668005DF8047B7047000080B500AF164A164B32
:10267800D3F8883043F47003C2F88830134A134BF8
:102688001B6843F001031360104B00229A600F4A45
:102698000E4B1B6823F0847323F4803313600B4BB9
:1026A8000B4A5A60094A094B1B6823F480231360BC
:1026B800064B0022DA6000F089F8034B4FF0006205
:1026C8009A6000BF80BD00BF00ED00E00038024006
:1026D8001030002480B487B000AF00233B61002392
:1026E8007B610223FB600023BB6002237B60324BCB
:1026F8009B6803F00C033B613B69042B07D0082B54
:1027080009D0002B3DD12D4B2D4A1A603DE02B4BB3
:102718002C4A1A6039E0284B5B689B0D03F00103D3
:10272800BB60254B5B6803F03F037B60BB68002BF5
:102738000CD0244A7B68B2FBF3F31F4A5268920913
:10274800C2F3080202FB03F37B610BE01C4A7B68BF
:10275800B2FBF3F3184A52689209C2F3080202FB6B
:1027680003F37B61144B5B681B0C03F00303013319
:102778005B00FB607A69FB68B2FBF3F30F4A1360F6
:1027880003E00E4B0E4A1A6000BF0B4B9B681B09F7
:1027980003F00F030C4AD35CDBB23B61074B1A68AA
:1027A8003B6922FA03F3054A136000BF1C37BD4694
:1027B8005DF8047B704700BF00380240000000202D
:1027C8000024F40040787D010400002080B483B028
:1027D80000AF00237B6000233B60364A354B1B6803
:1027E80043F480331360334B1B6803F400333B60BE
:1027F8007B6801337B603B68002B03D17B68B3F5B2
:10280800A06FF0D12B4B1B6803F40033002B02D0D0
:1028180001233B6001E000233B603B68012B42D170
:10282800244A244B1B6C43F080531364224A224BE6
:102838001B6843F4404313601E4A1E4B9B68936019
:102848001C4A1C4B9B6843F400439360194A194B7C
:102858009B6843F4A0539360164B184A5A60154A74
:10286800144B1B6843F08073136000BF114B1B6847
:1028780003F00073002BF9D0114B40F205721A6077
:102888000C4A0C4B9B6823F003039360094A094BDD
:102898009B6843F00203936000BF064B9B6803F0FC
:1028A8000C03082BF9D100BF0C37BD465DF8047B3B
:1028B800704700BF003802400070004019544007BC
:1028C800003C024080B487B000AFF860B9607A601D
:1028D80001237B6104E07B697A6802FB03F37B6177
:1028E8007B69BA68B2FBF3F27B689A42F3D229E0BB
:1028F8007B69BA68B2FBF3F33B617A69BB68B3FBE7
:10290800F2F102FB01F29B1ABB607A697B6892FBC9
:10291800F3F37B613B69092B0ADDFB681B68591CD3
:10292800FA6811603A69D2B23732D2B21A7009E045
:10293800FB681B68591CFA6811603A69D2B23032D8
:10294800D2B21A707B69002BD2D100BF1C37BD46AA
:102958005DF8047B704780B588B000AFF860B96057
:102968007A60FB687B617DE0BB681B78252B71D1A1
:10297800BB680133BB60BB681B78642B1ED0642B1B
:1029880006DC582B50D0632B0ED0252B58D05DE099
:10299800732B2BD0732B02DC692B0FD056E0752BD1
:1029A80037D0782B40D051E0FB685A1CFA607A681F
:1029B800111D79601268D2B21A7047E07B681A1D3F
:1029C8007A601B68FB61FB69002B07DAFB695B42D5
:1029D800FB61FB685A1CFA602D221A70F96907F12D
:1029E8000C030A221846FFF76DFF2FE07B681A1DBB
:1029F8007A601B68BB6107E0FB685A1CFA60BA6919
:102A0800511CB96112781A70BB691B78002BF3D17D
:102A18001CE07B681A1D7A60196807F10C030A220A
:102A28001846FFF74FFF11E07B681A1D7A601B6894
:102A3800194607F10C0310221846FFF743FF05E07B
:102A4800FB685A1CFA6025221A7000BFBB68013364
:102A5800BB6007E0FB685A1CFA60BA68511CB96091
:102A680012781A70BB681B78002B7FF47DAFFB6867
:102A780000221A70FB681A467B69D31A1846203759
:102A8800BD4680BD0EB480B585B000AF786007F153
:102A98002003BB60BA68F9697868FFF75CFFF860E3
:102AA800FB6818461437BD46BDE8804003B0704740
:102AB80070B50D4E0D4CA41BA4100025A54209D1DC
:102AC8000B4E0C4C00F018F8A41BA4100025A542CE
:102AD80005D170BD56F8253098470135EEE756F810
:102AE800253098470135F2E7F42C0008F42C00084B
:102AF800F42C0008F82C0008F8B500BFF8BC08BC96
:102B08009E467047F8B500BFF8BC08BC9E467047A3
:102B1800456E74657220706173733A20000000007E
:102B2800436F6E6669726D20706173733A2000009E
:102B38005375636365737320000000004368656321
:102B48006B20706173733A2000000000556E617548
:102B580074686F72697A656420000000436F6E665E
:102B680069726D6564200000312E20456E746572AF
:102B780020505700322E204368616E6765205057F9
:102B880000000000526F6F6D2054656D70203D206D
:102B98000000000020202020000000004F4B000013
:102BA80041542B43495053454E443D32360D0A009B
:102BB8005468652054656D702E20697320746F6F9A
:102BC80020686967682020256420204300000000F1
:102BD80041540D0A000000005749464920697320F6
:102BE80055700A005749464920697320446F776E2B
:102BF8000A000000415445300D0A00004563686F23
:102C08002044697361626C65640A00004563686FFB
:102C1800206E6F742044697361626C65640A0000F9
:102C280041542B43574D4F44453D310D0A00000098
:102C380053746174696F6E204D6F646520446F6EC4
:102C4800650A000053746174696F6E204D6F646586
:102C5800204552524F520A0041542B43574A415083
:102C68003D2241686D65642053616D79222C226193
:102C7800686D656473616D7931343633220D0A00ED
:102C88004E6574776F726B20436F6E6E6563746503
:102C9800640A00004E6574776F726B204552524F7C
:102CA800520A000041542B43495053544152543D59
:102CB80022544350222C223139322E3136382E30CC
:102CC8002E313031222C343434340D0A0000000007
:102CD80054435020436F6E6E65637465640A000048
:0C2CE800544350204552524F520A000045
:042CF400AD01000826
:042CF8008901000846
:102CFC00007A030A00000000000000000102030437
:042D0C0006070809A5
:04000005080025CDFD
:00000001FF
